{
  "contractName": "SpiroAgreementManager",
  "abi": [
    {
      "inputs": [],
      "stateMutability": "nonpayable",
      "type": "constructor"
    },
    {
      "anonymous": false,
      "inputs": [
        {
          "indexed": false,
          "internalType": "uint256",
          "name": "agreementId",
          "type": "uint256"
        },
        {
          "indexed": false,
          "internalType": "string",
          "name": "ipfsCID",
          "type": "string"
        },
        {
          "indexed": false,
          "internalType": "string",
          "name": "agreementHash",
          "type": "string"
        }
      ],
      "name": "AgreementCreated",
      "type": "event"
    },
    {
      "anonymous": false,
      "inputs": [
        {
          "indexed": false,
          "internalType": "uint256",
          "name": "agreementId",
          "type": "uint256"
        },
        {
          "indexed": false,
          "internalType": "address",
          "name": "signer",
          "type": "address"
        }
      ],
      "name": "AgreementSigned",
      "type": "event"
    },
    {
      "anonymous": false,
      "inputs": [
        {
          "indexed": false,
          "internalType": "uint256",
          "name": "agreementId",
          "type": "uint256"
        },
        {
          "indexed": false,
          "internalType": "address",
          "name": "signer",
          "type": "address"
        }
      ],
      "name": "SignerAdded",
      "type": "event"
    },
    {
      "inputs": [],
      "name": "agreementCount",
      "outputs": [
        {
          "internalType": "uint256",
          "name": "",
          "type": "uint256"
        }
      ],
      "stateMutability": "view",
      "type": "function",
      "constant": true
    },
    {
      "inputs": [],
      "name": "owner",
      "outputs": [
        {
          "internalType": "address",
          "name": "",
          "type": "address"
        }
      ],
      "stateMutability": "view",
      "type": "function",
      "constant": true
    },
    {
      "inputs": [
        {
          "internalType": "string",
          "name": "_agreementHash",
          "type": "string"
        },
        {
          "internalType": "string",
          "name": "_ipfsCID",
          "type": "string"
        },
        {
          "internalType": "address[]",
          "name": "_signers",
          "type": "address[]"
        }
      ],
      "name": "createAgreement",
      "outputs": [],
      "stateMutability": "nonpayable",
      "type": "function"
    },
    {
      "inputs": [
        {
          "internalType": "uint256",
          "name": "_agreementId",
          "type": "uint256"
        }
      ],
      "name": "signAgreement",
      "outputs": [],
      "stateMutability": "nonpayable",
      "type": "function"
    },
    {
      "inputs": [
        {
          "internalType": "uint256",
          "name": "_agreementId",
          "type": "uint256"
        }
      ],
      "name": "viewAgreement",
      "outputs": [
        {
          "internalType": "string",
          "name": "",
          "type": "string"
        },
        {
          "internalType": "string",
          "name": "",
          "type": "string"
        },
        {
          "internalType": "address[]",
          "name": "",
          "type": "address[]"
        },
        {
          "internalType": "bool",
          "name": "",
          "type": "bool"
        }
      ],
      "stateMutability": "view",
      "type": "function",
      "constant": true
    },
    {
      "inputs": [
        {
          "internalType": "uint256",
          "name": "_agreementId",
          "type": "uint256"
        },
        {
          "internalType": "address",
          "name": "_signer",
          "type": "address"
        }
      ],
      "name": "hasSignerSigned",
      "outputs": [
        {
          "internalType": "bool",
          "name": "",
          "type": "bool"
        }
      ],
      "stateMutability": "view",
      "type": "function",
      "constant": true
    }
  ],
  "bytecode": "0x608060405234801561001057600080fd5b50336000806101000a81548173ffffffffffffffffffffffffffffffffffffffff021916908373ffffffffffffffffffffffffffffffffffffffff160217905550611874806100606000396000f3fe608060405234801561001057600080fd5b50600436106100625760003560e01c806301464c9c1461006757806303742de01461009a5780633cee1419146100b65780638da5cb5b146100e6578063bb7bb27814610104578063f335006914610122575b600080fd5b610081600480360381019061007c9190611029565b61013e565b6040516100919493929190611480565b60405180910390f35b6100b460048036038101906100af9190611029565b610488565b005b6100d060048036038101906100cb9190611052565b610a6b565b6040516100dd9190611465565b60405180910390f35b6100ee610adb565b6040516100fb919061144a565b60405180910390f35b61010c610aff565b60405161011991906115ba565b60405180910390f35b61013c60048036038101906101379190610f85565b610b05565b005b606080606060008060016000878152602001908152602001600020905060008054906101000a900473ffffffffffffffffffffffffffffffffffffffff1673ffffffffffffffffffffffffffffffffffffffff163373ffffffffffffffffffffffffffffffffffffffff16146102ba576000805b8260020180549050811015610277573373ffffffffffffffffffffffffffffffffffffffff16836002018281548110610214577f4e487b7100000000000000000000000000000000000000000000000000000000600052603260045260246000fd5b9060005260206000200160009054906101000a900473ffffffffffffffffffffffffffffffffffffffff1673ffffffffffffffffffffffffffffffffffffffff1614156102645760019150610277565b808061026f90611758565b9150506101b2565b50806102b8576040517f08c379a00000000000000000000000000000000000000000000000000000000081526004016102af906114da565b60405180910390fd5b505b8060000181600101826002018360040160009054906101000a900460ff168380546102e490611726565b80601f016020809104026020016040519081016040528092919081815260200182805461031090611726565b801561035d5780601f106103325761010080835404028352916020019161035d565b820191906000526020600020905b81548152906001019060200180831161034057829003601f168201915b5050505050935082805461037090611726565b80601f016020809104026020016040519081016040528092919081815260200182805461039c90611726565b80156103e95780601f106103be576101008083540402835291602001916103e9565b820191906000526020600020905b8154815290600101906020018083116103cc57829003601f168201915b505050505092508180548060200260200160405190810160405280929190818152602001828054801561047157602002820191906000526020600020905b8160009054906101000a900473ffffffffffffffffffffffffffffffffffffffff1673ffffffffffffffffffffffffffffffffffffffff1681526020019060010190808311610427575b505050505091509450945094509450509193509193565b60006001600083815260200190815260200160002090508060040160009054906101000a900460ff16156104f1576040517f08c379a00000000000000000000000000000000000000000000000000000000081526004016104e89061157a565b60405180910390fd5b60008054906101000a900473ffffffffffffffffffffffffffffffffffffffff1673ffffffffffffffffffffffffffffffffffffffff163373ffffffffffffffffffffffffffffffffffffffff1614156106ae578060030160008060009054906101000a900473ffffffffffffffffffffffffffffffffffffffff1673ffffffffffffffffffffffffffffffffffffffff1673ffffffffffffffffffffffffffffffffffffffff16815260200190815260200160002060009054906101000a900460ff16156105f5576040517f08c379a00000000000000000000000000000000000000000000000000000000081526004016105ec9061159a565b60405180910390fd5b60018160030160008060009054906101000a900473ffffffffffffffffffffffffffffffffffffffff1673ffffffffffffffffffffffffffffffffffffffff1673ffffffffffffffffffffffffffffffffffffffff16815260200190815260200160002060006101000a81548160ff0219169083151502179055507f8627d1daa39d8946525ef5ff641bab4fa900fccf251de0a3094390b09f96d72082336040516106a19291906115d5565b60405180910390a16108dc565b6000805b8260020180549050811015610777573373ffffffffffffffffffffffffffffffffffffffff16836002018281548110610714577f4e487b7100000000000000000000000000000000000000000000000000000000600052603260045260246000fd5b9060005260206000200160009054906101000a900473ffffffffffffffffffffffffffffffffffffffff1673ffffffffffffffffffffffffffffffffffffffff1614156107645760019150610777565b808061076f90611758565b9150506106b2565b50806107b8576040517f08c379a00000000000000000000000000000000000000000000000000000000081526004016107af9061151a565b60405180910390fd5b8160030160003373ffffffffffffffffffffffffffffffffffffffff1673ffffffffffffffffffffffffffffffffffffffff16815260200190815260200160002060009054906101000a900460ff1615610847576040517f08c379a000000000000000000000000000000000000000000000000000000000815260040161083e9061153a565b60405180910390fd5b60018260030160003373ffffffffffffffffffffffffffffffffffffffff1673ffffffffffffffffffffffffffffffffffffffff16815260200190815260200160002060006101000a81548160ff0219169083151502179055507f8627d1daa39d8946525ef5ff641bab4fa900fccf251de0a3094390b09f96d72083336040516108d29291906115d5565b60405180910390a1505b60006001905060005b82600201805490508110156109c957826003016000846002018381548110610936577f4e487b7100000000000000000000000000000000000000000000000000000000600052603260045260246000fd5b9060005260206000200160009054906101000a900473ffffffffffffffffffffffffffffffffffffffff1673ffffffffffffffffffffffffffffffffffffffff1673ffffffffffffffffffffffffffffffffffffffff16815260200190815260200160002060009054906101000a900460ff166109b657600091506109c9565b80806109c190611758565b9150506108e5565b50808015610a4357508160030160008060009054906101000a900473ffffffffffffffffffffffffffffffffffffffff1673ffffffffffffffffffffffffffffffffffffffff1673ffffffffffffffffffffffffffffffffffffffff16815260200190815260200160002060009054906101000a900460ff165b15610a665760018260040160006101000a81548160ff0219169083151502179055505b505050565b6000806001600085815260200190815260200160002090508060030160008473ffffffffffffffffffffffffffffffffffffffff1673ffffffffffffffffffffffffffffffffffffffff16815260200190815260200160002060009054906101000a900460ff1691505092915050565b60008054906101000a900473ffffffffffffffffffffffffffffffffffffffff1681565b60025481565b60008054906101000a900473ffffffffffffffffffffffffffffffffffffffff1673ffffffffffffffffffffffffffffffffffffffff163373ffffffffffffffffffffffffffffffffffffffff1614610b93576040517f08c379a0000000000000000000000000000000000000000000000000000000008152600401610b8a906114fa565b60405180910390fd5b60008282905011610bd9576040517f08c379a0000000000000000000000000000000000000000000000000000000008152600401610bd09061155a565b60405180910390fd5b6000600254905060006001600083815260200190815260200160002090508787826000019190610c0a929190610dfb565b508585826001019190610c1e929190610dfb565b5060005b84849050811015610d995781600201858583818110610c6a577f4e487b7100000000000000000000000000000000000000000000000000000000600052603260045260246000fd5b9050602002016020810190610c7f9190610f5c565b9080600181540180825580915050600190039060005260206000200160009091909190916101000a81548173ffffffffffffffffffffffffffffffffffffffff021916908373ffffffffffffffffffffffffffffffffffffffff1602179055506000826003016000878785818110610d20577f4e487b7100000000000000000000000000000000000000000000000000000000600052603260045260246000fd5b9050602002016020810190610d359190610f5c565b73ffffffffffffffffffffffffffffffffffffffff1673ffffffffffffffffffffffffffffffffffffffff16815260200190815260200160002060006101000a81548160ff0219169083151502179055508080610d9190611758565b915050610c22565b5060026000815480929190610dad90611758565b91905055507f7fbd2512696728e1becc24d82385cf38d62cd4e7f5adc68d6a4551fd9a43287f8287878b8b604051610de99594939291906115fe565b60405180910390a15050505050505050565b828054610e0790611726565b90600052602060002090601f016020900481019282610e295760008555610e70565b82601f10610e4257803560ff1916838001178555610e70565b82800160010185558215610e70579182015b82811115610e6f578235825591602001919060010190610e54565b5b509050610e7d9190610e81565b5090565b5b80821115610e9a576000816000905550600101610e82565b5090565b600081359050610ead81611810565b92915050565b60008083601f840112610ec557600080fd5b8235905067ffffffffffffffff811115610ede57600080fd5b602083019150836020820283011115610ef657600080fd5b9250929050565b60008083601f840112610f0f57600080fd5b8235905067ffffffffffffffff811115610f2857600080fd5b602083019150836001820283011115610f4057600080fd5b9250929050565b600081359050610f5681611827565b92915050565b600060208284031215610f6e57600080fd5b6000610f7c84828501610e9e565b91505092915050565b60008060008060008060608789031215610f9e57600080fd5b600087013567ffffffffffffffff811115610fb857600080fd5b610fc489828a01610efd565b9650965050602087013567ffffffffffffffff811115610fe357600080fd5b610fef89828a01610efd565b9450945050604087013567ffffffffffffffff81111561100e57600080fd5b61101a89828a01610eb3565b92509250509295509295509295565b60006020828403121561103b57600080fd5b600061104984828501610f47565b91505092915050565b6000806040838503121561106557600080fd5b600061107385828601610f47565b925050602061108485828601610e9e565b9150509250929050565b600061109a83836110a6565b60208301905092915050565b6110af8161169c565b82525050565b6110be8161169c565b82525050565b60006110cf82611657565b6110d9818561167a565b93506110e483611647565b8060005b838110156111155781516110fc888261108e565b97506111078361166d565b9250506001810190506110e8565b5085935050505092915050565b61112b816116ae565b82525050565b600061113d838561168b565b935061114a8385846116e4565b611153836117ff565b840190509392505050565b600061116982611662565b611173818561168b565b93506111838185602086016116f3565b61118c816117ff565b840191505092915050565b60006111a4602d8361168b565b91507f596f7520617265206e6f7420617574686f72697a656420746f2076696577207460008301527f6869732061677265656d656e74000000000000000000000000000000000000006020830152604082019050919050565b600061120a60268361168b565b91507f4f6e6c7920746865206f776e65722063616e20706572666f726d20746869732060008301527f616374696f6e00000000000000000000000000000000000000000000000000006020830152604082019050919050565b600061127060268361168b565b91507f596f7520617265206e6f742061207369676e6572206f6620746869732061677260008301527f65656d656e7400000000000000000000000000000000000000000000000000006020830152604082019050919050565b60006112d660268361168b565b91507f596f75206861766520616c7265616479207369676e656420746869732061677260008301527f65656d656e7400000000000000000000000000000000000000000000000000006020830152604082019050919050565b600061133c60218361168b565b91507f4174206c65617374206f6e65207369676e6572206d757374206265206164646560008301527f64000000000000000000000000000000000000000000000000000000000000006020830152604082019050919050565b60006113a2601d8361168b565b91507f41677265656d656e7420697320616c726561647920636f6d706c6574650000006000830152602082019050919050565b60006113e260278361168b565b91507f4f776e65722068617320616c7265616479207369676e6564207468697320616760008301527f7265656d656e74000000000000000000000000000000000000000000000000006020830152604082019050919050565b611444816116da565b82525050565b600060208201905061145f60008301846110b5565b92915050565b600060208201905061147a6000830184611122565b92915050565b6000608082019050818103600083015261149a818761115e565b905081810360208301526114ae818661115e565b905081810360408301526114c281856110c4565b90506114d16060830184611122565b95945050505050565b600060208201905081810360008301526114f381611197565b9050919050565b60006020820190508181036000830152611513816111fd565b9050919050565b6000602082019050818103600083015261153381611263565b9050919050565b60006020820190508181036000830152611553816112c9565b9050919050565b600060208201905081810360008301526115738161132f565b9050919050565b6000602082019050818103600083015261159381611395565b9050919050565b600060208201905081810360008301526115b3816113d5565b9050919050565b60006020820190506115cf600083018461143b565b92915050565b60006040820190506115ea600083018561143b565b6115f760208301846110b5565b9392505050565b6000606082019050611613600083018861143b565b8181036020830152611626818688611131565b9050818103604083015261163b818486611131565b90509695505050505050565b6000819050602082019050919050565b600081519050919050565b600081519050919050565b6000602082019050919050565b600082825260208201905092915050565b600082825260208201905092915050565b60006116a7826116ba565b9050919050565b60008115159050919050565b600073ffffffffffffffffffffffffffffffffffffffff82169050919050565b6000819050919050565b82818337600083830152505050565b60005b838110156117115780820151818401526020810190506116f6565b83811115611720576000848401525b50505050565b6000600282049050600182168061173e57607f821691505b60208210811415611752576117516117d0565b5b50919050565b6000611763826116da565b91507fffffffffffffffffffffffffffffffffffffffffffffffffffffffffffffffff821415611796576117956117a1565b5b600182019050919050565b7f4e487b7100000000000000000000000000000000000000000000000000000000600052601160045260246000fd5b7f4e487b7100000000000000000000000000000000000000000000000000000000600052602260045260246000fd5b6000601f19601f8301169050919050565b6118198161169c565b811461182457600080fd5b50565b611830816116da565b811461183b57600080fd5b5056fea264697066735822122090192f3db29682264bbdfd61fe930ea85725ca1217772a118ceb12481e50d25464736f6c63430008000033",
  "immutableReferences": {},
  "source": "// SPDX-License-Identifier: MIT\r\npragma solidity ^0.8.0;\r\n\r\ncontract SpiroAgreementManager {\r\n    struct Agreement {\r\n        string agreementHash; // Agreement hash (encrypted or plaintext hash)\r\n        string ipfsCID;       // CID pointing to IPFS file if applicable\r\n        address[] signers;    // List of signers (Spiro and vendors)\r\n        mapping(address => bool) hasSigned; // Track whether each address has signed\r\n        bool isComplete;      // Status of whether all parties have signed\r\n    }\r\n\r\n    address public owner; // Spiro as the deployer and owner of the contract\r\n    mapping(uint256 => Agreement) private agreements; // Agreements indexed by ID\r\n    uint256 public agreementCount; // Number of agreements\r\n\r\n    event AgreementCreated(uint256 agreementId, string ipfsCID, string agreementHash);\r\n    event AgreementSigned(uint256 agreementId, address signer);\r\n    event SignerAdded(uint256 agreementId, address signer);\r\n\r\n    modifier onlyOwner() {\r\n        require(msg.sender == owner, \"Only the owner can perform this action\");\r\n        _;\r\n    }\r\n\r\n    constructor() {\r\n        owner = msg.sender;\r\n    }\r\n\r\n    // Create a new agreement\r\n    function createAgreement(string calldata _agreementHash, string calldata _ipfsCID, address[] calldata _signers) external onlyOwner {\r\n        require(_signers.length > 0, \"At least one signer must be added\");\r\n\r\n        uint256 agreementId = agreementCount;\r\n        Agreement storage agreement = agreements[agreementId];\r\n        agreement.agreementHash = _agreementHash;\r\n        agreement.ipfsCID = _ipfsCID;\r\n\r\n        // Add signers and initialize signing status\r\n        for (uint256 i = 0; i < _signers.length; i++) {\r\n            agreement.signers.push(_signers[i]);\r\n            agreement.hasSigned[_signers[i]] = false;\r\n        }\r\n\r\n        agreementCount++;\r\n        emit AgreementCreated(agreementId, _ipfsCID, _agreementHash);\r\n    }\r\n\r\n    // Allow the owner (Spiro) to sign first, then any signer can sign\r\n    function signAgreement(uint256 _agreementId) external {\r\n        Agreement storage agreement = agreements[_agreementId];\r\n        require(!agreement.isComplete, \"Agreement is already complete\");\r\n\r\n        // Check if the caller is the owner (Spiro) and sign first\r\n        if (msg.sender == owner) {\r\n            require(!agreement.hasSigned[owner], \"Owner has already signed this agreement\");\r\n            agreement.hasSigned[owner] = true;\r\n            emit AgreementSigned(_agreementId, msg.sender);\r\n        } else {\r\n            // Check if the caller is one of the vendors\r\n            bool isSigner = false;\r\n            for (uint256 i = 0; i < agreement.signers.length; i++) {\r\n                if (agreement.signers[i] == msg.sender) {\r\n                    isSigner = true;\r\n                    break;\r\n                }\r\n            }\r\n            require(isSigner, \"You are not a signer of this agreement\");\r\n            require(!agreement.hasSigned[msg.sender], \"You have already signed this agreement\");\r\n\r\n            agreement.hasSigned[msg.sender] = true;\r\n            emit AgreementSigned(_agreementId, msg.sender);\r\n        }\r\n\r\n        // Check if all parties have signed\r\n        bool allSigned = true;\r\n        for (uint256 i = 0; i < agreement.signers.length; i++) {\r\n            if (!agreement.hasSigned[agreement.signers[i]]) {\r\n                allSigned = false;\r\n                break;\r\n            }\r\n        }\r\n\r\n        // Owner must sign first, and then the other signers can sign\r\n        if (allSigned && agreement.hasSigned[owner]) {\r\n            agreement.isComplete = true;\r\n        }\r\n    }\r\n\r\n    // View an agreement's details (accessible by the owner or the signers)\r\n    function viewAgreement(uint256 _agreementId)\r\n        external\r\n        view\r\n        returns (\r\n            string memory,\r\n            string memory,\r\n            address[] memory,\r\n            bool\r\n        )\r\n    {\r\n        Agreement storage agreement = agreements[_agreementId];\r\n\r\n        // Allow the owner to view any agreement\r\n        if (msg.sender != owner) {\r\n            // Ensure the caller is one of the signers if not the owner\r\n            bool isSigner = false;\r\n            for (uint256 i = 0; i < agreement.signers.length; i++) {\r\n                if (agreement.signers[i] == msg.sender) {\r\n                    isSigner = true;\r\n                    break;\r\n                }\r\n            }\r\n            require(isSigner, \"You are not authorized to view this agreement\");\r\n        }\r\n\r\n        return (\r\n            agreement.agreementHash,\r\n            agreement.ipfsCID,\r\n            agreement.signers,\r\n            agreement.isComplete\r\n        );\r\n    }\r\n\r\n    // Check if a specific signer has signed an agreement\r\n    function hasSignerSigned(uint256 _agreementId, address _signer) external view returns (bool) {\r\n        Agreement storage agreement = agreements[_agreementId];\r\n        return agreement.hasSigned[_signer];\r\n    }\r\n}",
  "sourcePath": "C:\\Users\\jatin.choubey\\slahub\\contracts\\SpiroAgreementManager.sol",
  "compiler": {
    "name": "solc",
    "version": "0.8.0+commit.c7dfd78e.Emscripten.clang"
  },
  "schemaVersion": "3.4.16",
  "updatedAt": "2024-12-13T11:24:55.861Z",
  "networkType": "ethereum",
  "devdoc": {
    "kind": "dev",
    "methods": {},
    "version": 1
  },
  "userdoc": {
    "kind": "user",
    "methods": {},
    "version": 1
  }
}