{
  "contractName": "SpiroAgreementManager",
  "abi": [
    {
      "inputs": [],
      "stateMutability": "nonpayable",
      "type": "constructor"
    },
    {
      "anonymous": false,
      "inputs": [
        {
          "indexed": false,
          "internalType": "uint256",
          "name": "agreementId",
          "type": "uint256"
        },
        {
          "indexed": false,
          "internalType": "string",
          "name": "ipfsCID",
          "type": "string"
        },
        {
          "indexed": false,
          "internalType": "string",
          "name": "agreementHash",
          "type": "string"
        }
      ],
      "name": "AgreementCreated",
      "type": "event"
    },
    {
      "anonymous": false,
      "inputs": [
        {
          "indexed": false,
          "internalType": "uint256",
          "name": "agreementId",
          "type": "uint256"
        },
        {
          "indexed": false,
          "internalType": "address",
          "name": "signer",
          "type": "address"
        }
      ],
      "name": "AgreementSigned",
      "type": "event"
    },
    {
      "anonymous": false,
      "inputs": [
        {
          "indexed": false,
          "internalType": "uint256",
          "name": "agreementId",
          "type": "uint256"
        },
        {
          "indexed": false,
          "internalType": "address",
          "name": "signer",
          "type": "address"
        }
      ],
      "name": "SignerAdded",
      "type": "event"
    },
    {
      "inputs": [],
      "name": "agreementCount",
      "outputs": [
        {
          "internalType": "uint256",
          "name": "",
          "type": "uint256"
        }
      ],
      "stateMutability": "view",
      "type": "function",
      "constant": true
    },
    {
      "inputs": [],
      "name": "owner",
      "outputs": [
        {
          "internalType": "address",
          "name": "",
          "type": "address"
        }
      ],
      "stateMutability": "view",
      "type": "function",
      "constant": true
    },
    {
      "inputs": [
        {
          "internalType": "string",
          "name": "_agreementHash",
          "type": "string"
        },
        {
          "internalType": "string",
          "name": "_ipfsCID",
          "type": "string"
        },
        {
          "internalType": "address[]",
          "name": "_signers",
          "type": "address[]"
        }
      ],
      "name": "createAgreement",
      "outputs": [],
      "stateMutability": "nonpayable",
      "type": "function"
    },
    {
      "inputs": [
        {
          "internalType": "uint256",
          "name": "_agreementId",
          "type": "uint256"
        }
      ],
      "name": "signAgreement",
      "outputs": [],
      "stateMutability": "nonpayable",
      "type": "function"
    },
    {
      "inputs": [
        {
          "internalType": "uint256",
          "name": "_agreementId",
          "type": "uint256"
        }
      ],
      "name": "viewAgreement",
      "outputs": [
        {
          "internalType": "string",
          "name": "",
          "type": "string"
        },
        {
          "internalType": "string",
          "name": "",
          "type": "string"
        },
        {
          "internalType": "address[]",
          "name": "",
          "type": "address[]"
        },
        {
          "internalType": "bool",
          "name": "",
          "type": "bool"
        }
      ],
      "stateMutability": "view",
      "type": "function",
      "constant": true
    },
    {
      "inputs": [
        {
          "internalType": "uint256",
          "name": "_agreementId",
          "type": "uint256"
        },
        {
          "internalType": "address",
          "name": "_signer",
          "type": "address"
        }
      ],
      "name": "hasSignerSigned",
      "outputs": [
        {
          "internalType": "bool",
          "name": "",
          "type": "bool"
        }
      ],
      "stateMutability": "view",
      "type": "function",
      "constant": true
    }
  ],
  "bytecode": "0x608060405234801561001057600080fd5b50336000806101000a81548173ffffffffffffffffffffffffffffffffffffffff021916908373ffffffffffffffffffffffffffffffffffffffff160217905550611948806100606000396000f3fe608060405234801561001057600080fd5b50600436106100625760003560e01c806301464c9c1461006757806303742de01461009a5780633cee1419146100b65780638da5cb5b146100e6578063bb7bb27814610104578063f335006914610122575b600080fd5b610081600480360381019061007c9190611072565b61013e565b604051610091949392919061149c565b60405180910390f35b6100b460048036038101906100af9190611072565b610488565b005b6100d060048036038101906100cb919061109b565b610a6b565b6040516100dd9190611481565b60405180910390f35b6100ee610adb565b6040516100fb9190611466565b60405180910390f35b61010c610aff565b60405161011991906115d6565b60405180910390f35b61013c60048036038101906101379190610fdb565b610b05565b005b606080606060008060016000878152602001908152602001600020905060008054906101000a900473ffffffffffffffffffffffffffffffffffffffff1673ffffffffffffffffffffffffffffffffffffffff163373ffffffffffffffffffffffffffffffffffffffff16146102ba576000805b8260020180549050811015610277573373ffffffffffffffffffffffffffffffffffffffff16836002018281548110610214577f4e487b7100000000000000000000000000000000000000000000000000000000600052603260045260246000fd5b9060005260206000200160009054906101000a900473ffffffffffffffffffffffffffffffffffffffff1673ffffffffffffffffffffffffffffffffffffffff1614156102645760019150610277565b808061026f906117fd565b9150506101b2565b50806102b8576040517f08c379a00000000000000000000000000000000000000000000000000000000081526004016102af906114f6565b60405180910390fd5b505b8060000181600101826002018360040160009054906101000a900460ff168380546102e4906117cb565b80601f0160208091040260200160405190810160405280929190818152602001828054610310906117cb565b801561035d5780601f106103325761010080835404028352916020019161035d565b820191906000526020600020905b81548152906001019060200180831161034057829003601f168201915b50505050509350828054610370906117cb565b80601f016020809104026020016040519081016040528092919081815260200182805461039c906117cb565b80156103e95780601f106103be576101008083540402835291602001916103e9565b820191906000526020600020905b8154815290600101906020018083116103cc57829003601f168201915b505050505092508180548060200260200160405190810160405280929190818152602001828054801561047157602002820191906000526020600020905b8160009054906101000a900473ffffffffffffffffffffffffffffffffffffffff1673ffffffffffffffffffffffffffffffffffffffff1681526020019060010190808311610427575b505050505091509450945094509450509193509193565b60006001600083815260200190815260200160002090508060040160009054906101000a900460ff16156104f1576040517f08c379a00000000000000000000000000000000000000000000000000000000081526004016104e890611596565b60405180910390fd5b60008054906101000a900473ffffffffffffffffffffffffffffffffffffffff1673ffffffffffffffffffffffffffffffffffffffff163373ffffffffffffffffffffffffffffffffffffffff1614156106ae578060030160008060009054906101000a900473ffffffffffffffffffffffffffffffffffffffff1673ffffffffffffffffffffffffffffffffffffffff1673ffffffffffffffffffffffffffffffffffffffff16815260200190815260200160002060009054906101000a900460ff16156105f5576040517f08c379a00000000000000000000000000000000000000000000000000000000081526004016105ec906115b6565b60405180910390fd5b60018160030160008060009054906101000a900473ffffffffffffffffffffffffffffffffffffffff1673ffffffffffffffffffffffffffffffffffffffff1673ffffffffffffffffffffffffffffffffffffffff16815260200190815260200160002060006101000a81548160ff0219169083151502179055507f8627d1daa39d8946525ef5ff641bab4fa900fccf251de0a3094390b09f96d72082336040516106a19291906115f1565b60405180910390a16108dc565b6000805b8260020180549050811015610777573373ffffffffffffffffffffffffffffffffffffffff16836002018281548110610714577f4e487b7100000000000000000000000000000000000000000000000000000000600052603260045260246000fd5b9060005260206000200160009054906101000a900473ffffffffffffffffffffffffffffffffffffffff1673ffffffffffffffffffffffffffffffffffffffff1614156107645760019150610777565b808061076f906117fd565b9150506106b2565b50806107b8576040517f08c379a00000000000000000000000000000000000000000000000000000000081526004016107af90611536565b60405180910390fd5b8160030160003373ffffffffffffffffffffffffffffffffffffffff1673ffffffffffffffffffffffffffffffffffffffff16815260200190815260200160002060009054906101000a900460ff1615610847576040517f08c379a000000000000000000000000000000000000000000000000000000000815260040161083e90611556565b60405180910390fd5b60018260030160003373ffffffffffffffffffffffffffffffffffffffff1673ffffffffffffffffffffffffffffffffffffffff16815260200190815260200160002060006101000a81548160ff0219169083151502179055507f8627d1daa39d8946525ef5ff641bab4fa900fccf251de0a3094390b09f96d72083336040516108d29291906115f1565b60405180910390a1505b60006001905060005b82600201805490508110156109c957826003016000846002018381548110610936577f4e487b7100000000000000000000000000000000000000000000000000000000600052603260045260246000fd5b9060005260206000200160009054906101000a900473ffffffffffffffffffffffffffffffffffffffff1673ffffffffffffffffffffffffffffffffffffffff1673ffffffffffffffffffffffffffffffffffffffff16815260200190815260200160002060009054906101000a900460ff166109b657600091506109c9565b80806109c1906117fd565b9150506108e5565b50808015610a4357508160030160008060009054906101000a900473ffffffffffffffffffffffffffffffffffffffff1673ffffffffffffffffffffffffffffffffffffffff1673ffffffffffffffffffffffffffffffffffffffff16815260200190815260200160002060009054906101000a900460ff165b15610a665760018260040160006101000a81548160ff0219169083151502179055505b505050565b6000806001600085815260200190815260200160002090508060030160008473ffffffffffffffffffffffffffffffffffffffff1673ffffffffffffffffffffffffffffffffffffffff16815260200190815260200160002060009054906101000a900460ff1691505092915050565b60008054906101000a900473ffffffffffffffffffffffffffffffffffffffff1681565b60025481565b60008054906101000a900473ffffffffffffffffffffffffffffffffffffffff1673ffffffffffffffffffffffffffffffffffffffff163373ffffffffffffffffffffffffffffffffffffffff1614610b93576040517f08c379a0000000000000000000000000000000000000000000000000000000008152600401610b8a90611516565b60405180910390fd5b6000815111610bd7576040517f08c379a0000000000000000000000000000000000000000000000000000000008152600401610bce90611576565b60405180910390fd5b6000600254905083600160008381526020019081526020016000206000019080519060200190610c08929190610e10565b5082600160008381526020019081526020016000206001019080519060200190610c33929190610e10565b5060005b8251811015610db65760016000838152602001908152602001600020600201838281518110610c8f577f4e487b7100000000000000000000000000000000000000000000000000000000600052603260045260246000fd5b60200260200101519080600181540180825580915050600190039060005260206000200160009091909190916101000a81548173ffffffffffffffffffffffffffffffffffffffff021916908373ffffffffffffffffffffffffffffffffffffffff1602179055506000600160008481526020019081526020016000206003016000858481518110610d4a577f4e487b7100000000000000000000000000000000000000000000000000000000600052603260045260246000fd5b602002602001015173ffffffffffffffffffffffffffffffffffffffff1673ffffffffffffffffffffffffffffffffffffffff16815260200190815260200160002060006101000a81548160ff0219169083151502179055508080610dae906117fd565b915050610c37565b5060026000815480929190610dca906117fd565b91905055507f7fbd2512696728e1becc24d82385cf38d62cd4e7f5adc68d6a4551fd9a43287f818486604051610e029392919061161a565b60405180910390a150505050565b828054610e1c906117cb565b90600052602060002090601f016020900481019282610e3e5760008555610e85565b82601f10610e5757805160ff1916838001178555610e85565b82800160010185558215610e85579182015b82811115610e84578251825591602001919060010190610e69565b5b509050610e929190610e96565b5090565b5b80821115610eaf576000816000905550600101610e97565b5090565b6000610ec6610ec184611690565b61165f565b90508083825260208201905082856020860282011115610ee557600080fd5b60005b85811015610f155781610efb8882610f5d565b845260208401935060208301925050600181019050610ee8565b5050509392505050565b6000610f32610f2d846116bc565b61165f565b905082815260208101848484011115610f4a57600080fd5b610f55848285611789565b509392505050565b600081359050610f6c816118e4565b92915050565b600082601f830112610f8357600080fd5b8135610f93848260208601610eb3565b91505092915050565b600082601f830112610fad57600080fd5b8135610fbd848260208601610f1f565b91505092915050565b600081359050610fd5816118fb565b92915050565b600080600060608486031215610ff057600080fd5b600084013567ffffffffffffffff81111561100a57600080fd5b61101686828701610f9c565b935050602084013567ffffffffffffffff81111561103357600080fd5b61103f86828701610f9c565b925050604084013567ffffffffffffffff81111561105c57600080fd5b61106886828701610f72565b9150509250925092565b60006020828403121561108457600080fd5b600061109284828501610fc6565b91505092915050565b600080604083850312156110ae57600080fd5b60006110bc85828601610fc6565b92505060206110cd85828601610f5d565b9150509250929050565b60006110e383836110ef565b60208301905092915050565b6110f881611741565b82525050565b61110781611741565b82525050565b6000611118826116fc565b611122818561171f565b935061112d836116ec565b8060005b8381101561115e57815161114588826110d7565b975061115083611712565b925050600181019050611131565b5085935050505092915050565b61117481611753565b82525050565b600061118582611707565b61118f8185611730565b935061119f818560208601611798565b6111a8816118d3565b840191505092915050565b60006111c0602d83611730565b91507f596f7520617265206e6f7420617574686f72697a656420746f2076696577207460008301527f6869732061677265656d656e74000000000000000000000000000000000000006020830152604082019050919050565b6000611226602683611730565b91507f4f6e6c7920746865206f776e65722063616e20706572666f726d20746869732060008301527f616374696f6e00000000000000000000000000000000000000000000000000006020830152604082019050919050565b600061128c602683611730565b91507f596f7520617265206e6f742061207369676e6572206f6620746869732061677260008301527f65656d656e7400000000000000000000000000000000000000000000000000006020830152604082019050919050565b60006112f2602683611730565b91507f596f75206861766520616c7265616479207369676e656420746869732061677260008301527f65656d656e7400000000000000000000000000000000000000000000000000006020830152604082019050919050565b6000611358602183611730565b91507f4174206c65617374206f6e65207369676e6572206d757374206265206164646560008301527f64000000000000000000000000000000000000000000000000000000000000006020830152604082019050919050565b60006113be601d83611730565b91507f41677265656d656e7420697320616c726561647920636f6d706c6574650000006000830152602082019050919050565b60006113fe602783611730565b91507f4f776e65722068617320616c7265616479207369676e6564207468697320616760008301527f7265656d656e74000000000000000000000000000000000000000000000000006020830152604082019050919050565b6114608161177f565b82525050565b600060208201905061147b60008301846110fe565b92915050565b6000602082019050611496600083018461116b565b92915050565b600060808201905081810360008301526114b6818761117a565b905081810360208301526114ca818661117a565b905081810360408301526114de818561110d565b90506114ed606083018461116b565b95945050505050565b6000602082019050818103600083015261150f816111b3565b9050919050565b6000602082019050818103600083015261152f81611219565b9050919050565b6000602082019050818103600083015261154f8161127f565b9050919050565b6000602082019050818103600083015261156f816112e5565b9050919050565b6000602082019050818103600083015261158f8161134b565b9050919050565b600060208201905081810360008301526115af816113b1565b9050919050565b600060208201905081810360008301526115cf816113f1565b9050919050565b60006020820190506115eb6000830184611457565b92915050565b60006040820190506116066000830185611457565b61161360208301846110fe565b9392505050565b600060608201905061162f6000830186611457565b8181036020830152611641818561117a565b90508181036040830152611655818461117a565b9050949350505050565b6000604051905081810181811067ffffffffffffffff82111715611686576116856118a4565b5b8060405250919050565b600067ffffffffffffffff8211156116ab576116aa6118a4565b5b602082029050602081019050919050565b600067ffffffffffffffff8211156116d7576116d66118a4565b5b601f19601f8301169050602081019050919050565b6000819050602082019050919050565b600081519050919050565b600081519050919050565b6000602082019050919050565b600082825260208201905092915050565b600082825260208201905092915050565b600061174c8261175f565b9050919050565b60008115159050919050565b600073ffffffffffffffffffffffffffffffffffffffff82169050919050565b6000819050919050565b82818337600083830152505050565b60005b838110156117b657808201518184015260208101905061179b565b838111156117c5576000848401525b50505050565b600060028204905060018216806117e357607f821691505b602082108114156117f7576117f6611875565b5b50919050565b60006118088261177f565b91507fffffffffffffffffffffffffffffffffffffffffffffffffffffffffffffffff82141561183b5761183a611846565b5b600182019050919050565b7f4e487b7100000000000000000000000000000000000000000000000000000000600052601160045260246000fd5b7f4e487b7100000000000000000000000000000000000000000000000000000000600052602260045260246000fd5b7f4e487b7100000000000000000000000000000000000000000000000000000000600052604160045260246000fd5b6000601f19601f8301169050919050565b6118ed81611741565b81146118f857600080fd5b50565b6119048161177f565b811461190f57600080fd5b5056fea2646970667358221220f394824fae836a3d68ba319203890d83dd56754846754c1cc395ee93b9019e4564736f6c63430008000033",
  "immutableReferences": {},
  "source": "// SPDX-License-Identifier: MIT\r\npragma solidity ^0.8.0;\r\n\r\ncontract SpiroAgreementManager {\r\n    struct Agreement {\r\n        string agreementHash; // Agreement hash (encrypted or plaintext hash)\r\n        string ipfsCID;       // CID pointing to IPFS file if applicable\r\n        address[] signers;    // List of signers (Spiro and vendors)\r\n        mapping(address => bool) hasSigned; // Track whether each address has signed\r\n        bool isComplete;      // Status of whether all parties have signed\r\n    }\r\n\r\n    address public owner; // Spiro as the deployer and owner of the contract\r\n    mapping(uint256 => Agreement) private agreements; // Agreements indexed by ID\r\n    uint256 public agreementCount; // Number of agreements\r\n\r\n    event AgreementCreated(uint256 agreementId, string ipfsCID, string agreementHash);\r\n    event AgreementSigned(uint256 agreementId, address signer);\r\n    event SignerAdded(uint256 agreementId, address signer);\r\n\r\n    modifier onlyOwner() {\r\n        require(msg.sender == owner, \"Only the owner can perform this action\");\r\n        _;\r\n    }\r\n\r\n    constructor() {\r\n        owner = msg.sender;\r\n    }\r\n\r\n    // Create a new agreement\r\n    function createAgreement(string memory _agreementHash, string memory _ipfsCID, address[] memory _signers) public onlyOwner {\r\n        require(_signers.length > 0, \"At least one signer must be added\");\r\n\r\n        uint256 agreementId = agreementCount;\r\n        agreements[agreementId].agreementHash = _agreementHash;\r\n        agreements[agreementId].ipfsCID = _ipfsCID;\r\n\r\n        // Add signers and initialize signing status\r\n        for (uint256 i = 0; i < _signers.length; i++) {\r\n            agreements[agreementId].signers.push(_signers[i]);\r\n            agreements[agreementId].hasSigned[_signers[i]] = false;\r\n        }\r\n\r\n        agreementCount++;\r\n        emit AgreementCreated(agreementId, _ipfsCID, _agreementHash);\r\n    }\r\n\r\n    // Allow the owner (Spiro) to sign first, then any signer can sign\r\n    function signAgreement(uint256 _agreementId) public {\r\n        Agreement storage agreement = agreements[_agreementId];\r\n        require(!agreement.isComplete, \"Agreement is already complete\");\r\n\r\n        // Check if the caller is the owner (Spiro) and sign first\r\n        if (msg.sender == owner) {\r\n            require(!agreement.hasSigned[owner], \"Owner has already signed this agreement\");\r\n            agreement.hasSigned[owner] = true;\r\n            emit AgreementSigned(_agreementId, msg.sender);\r\n        }\r\n        // Check if the caller is one of the vendors\r\n        else {\r\n            bool isSigner = false;\r\n            for (uint256 i = 0; i < agreement.signers.length; i++) {\r\n                if (agreement.signers[i] == msg.sender) {\r\n                    isSigner = true;\r\n                    break;\r\n                }\r\n            }\r\n            require(isSigner, \"You are not a signer of this agreement\");\r\n            require(!agreement.hasSigned[msg.sender], \"You have already signed this agreement\");\r\n\r\n            agreement.hasSigned[msg.sender] = true;\r\n            emit AgreementSigned(_agreementId, msg.sender);\r\n        }\r\n\r\n        // Check if all parties have signed\r\n        bool allSigned = true;\r\n        for (uint256 i = 0; i < agreement.signers.length; i++) {\r\n            if (!agreement.hasSigned[agreement.signers[i]]) {\r\n                allSigned = false;\r\n                break;\r\n            }\r\n        }\r\n\r\n        // Owner must sign first, and then the other signers can sign\r\n        if (allSigned && agreement.hasSigned[owner]) {\r\n            agreement.isComplete = true;\r\n        }\r\n    }\r\n\r\n    // View an agreement's details (accessible by the owner or the signers)\r\n    function viewAgreement(uint256 _agreementId)\r\n        public\r\n        view\r\n        returns (\r\n            string memory,\r\n            string memory,\r\n            address[] memory,\r\n            bool\r\n        )\r\n    {\r\n        Agreement storage agreement = agreements[_agreementId];\r\n\r\n        // Allow the owner to view any agreement\r\n        if (msg.sender != owner) {\r\n            // Ensure the caller is one of the signers if not the owner\r\n            bool isSigner = false;\r\n            for (uint256 i = 0; i < agreement.signers.length; i++) {\r\n                if (agreement.signers[i] == msg.sender) {\r\n                    isSigner = true;\r\n                    break;\r\n                }\r\n            }\r\n            require(isSigner, \"You are not authorized to view this agreement\");\r\n        }\r\n\r\n        return (\r\n            agreement.agreementHash,\r\n            agreement.ipfsCID,\r\n            agreement.signers,\r\n            agreement.isComplete\r\n        );\r\n    }\r\n\r\n\r\n    // Check if a specific signer has signed an agreement\r\n    function hasSignerSigned(uint256 _agreementId, address _signer) public view returns (bool) {\r\n        Agreement storage agreement = agreements[_agreementId];\r\n        return agreement.hasSigned[_signer];\r\n    }\r\n}",
  "sourcePath": "C:\\Users\\jatin.choubey\\slahub\\contracts\\SpiroAgreementManager.sol",
  "compiler": {
    "name": "solc",
    "version": "0.8.0+commit.c7dfd78e.Emscripten.clang"
  },
  "schemaVersion": "3.4.16",
  "updatedAt": "2024-12-11T06:42:30.113Z",
  "networkType": "ethereum",
  "devdoc": {
    "kind": "dev",
    "methods": {},
    "version": 1
  },
  "userdoc": {
    "kind": "user",
    "methods": {},
    "version": 1
  }
}